{
  "contractName": "Rental",
  "abi": [
    {
      "constant": true,
      "inputs": [
        {
          "internalType": "uint256",
          "name": "",
          "type": "uint256"
        }
      ],
      "name": "renters",
      "outputs": [
        {
          "internalType": "address",
          "name": "",
          "type": "address"
        }
      ],
      "payable": false,
      "stateMutability": "view",
      "type": "function"
    },
    {
      "constant": false,
      "inputs": [
        {
          "internalType": "uint256",
          "name": "bookId",
          "type": "uint256"
        }
      ],
      "name": "Rent",
      "outputs": [
        {
          "internalType": "uint256",
          "name": "",
          "type": "uint256"
        }
      ],
      "payable": false,
      "stateMutability": "nonpayable",
      "type": "function"
    },
    {
      "constant": true,
      "inputs": [],
      "name": "getRenters",
      "outputs": [
        {
          "internalType": "address[16]",
          "name": "",
          "type": "address[16]"
        }
      ],
      "payable": false,
      "stateMutability": "view",
      "type": "function"
    }
  ],
  "bytecode": "0x608060405234801561001057600080fd5b506102b9806100206000396000f3fe608060405234801561001057600080fd5b50600436106100415760003560e01c806377ff0cff146100465780638d5f18c814610088578063dcc3974b146100ce575b600080fd5b6100726004803603602081101561005c57600080fd5b810190808035906020019092919050505061013c565b6040518082815260200191505060405180910390f35b6100906101ad565b6040518082601060200280838360005b838110156100bb5780820151818401526020810190506100a0565b5050505090500191505060405180910390f35b6100fa600480360360208110156100e457600080fd5b810190808035906020019092919050505061022e565b604051808273ffffffffffffffffffffffffffffffffffffffff1673ffffffffffffffffffffffffffffffffffffffff16815260200191505060405180910390f35b600080821015801561014f5750600f8211155b61015857600080fd5b336000836010811061016657fe5b0160006101000a81548173ffffffffffffffffffffffffffffffffffffffff021916908373ffffffffffffffffffffffffffffffffffffffff160217905550819050919050565b6101b5610261565b6000601080602002604051908101604052809291908260108015610224576020028201915b8160009054906101000a900473ffffffffffffffffffffffffffffffffffffffff1673ffffffffffffffffffffffffffffffffffffffff16815260200190600101908083116101da575b5050505050905090565b6000816010811061023b57fe5b016000915054906101000a900473ffffffffffffffffffffffffffffffffffffffff1681565b60405180610200016040528060109060208202803883398082019150509050509056fea265627a7a7231582030524f162cf7f1fec045fc793ef55e3bb0eeba00f43d3cae316d4f61bad23abf64736f6c63430005100032",
  "source": "// SPDX-License-Identifier: MIT\r\npragma solidity ^0.5.0;\r\n\r\ncontract Rental{\r\n\r\n    address[16] public renters;\r\n\r\n// rent function\r\n    function Rent(uint bookId) public returns (uint){\r\n        require(bookId >= 0 && bookId <= 15);\r\n\r\n        renters[bookId] = msg.sender;\r\n\r\n        return bookId;\r\n    }\r\n// retrieve the renters\r\n    function getRenters() public view returns (address[16] memory){\r\n        return renters;\r\n    }\r\n\r\n}",
  "sourcePath": "C:\\Users\\Ya boi\\pet-shop-tutorial\\contracts\\Rental.sol",
  "compiler": {
    "name": "solc",
    "version": "0.5.16+commit.9c3226ce.Emscripten.clang"
  },
  "schemaVersion": "3.4.16",
  "updatedAt": "2024-04-25T03:01:32.536Z",
  "networkType": "ethereum",
  "devdoc": {
    "methods": {}
  },
  "userdoc": {
    "methods": {}
  }
}